{
  "transactions": [
    {
      "hash": "0x02164644d6605e6b6b2a62e50d49e527a05f4d50866c40c494c86a79687e4e45",
      "transactionType": "CALL",
      "contractName": null,
      "contractAddress": "0x5FbDB2315678afecb367f032d93F642f64180aa3",
      "function": "sendMessage(bytes,uint256,bytes)",
      "arguments": [
        "0x307835666264623233313536373861666563623336376630333264393366363432663634313830616133",
        "1",
        "0x48656c6c6f2c20576f726c6421"
      ],
      "transaction": {
        "type": "0x02",
        "from": "0xf39fd6e51aad88f6f4ce6ab8827279cfffb92266",
        "to": "0x5fbdb2315678afecb367f032d93f642f64180aa3",
        "gas": "0xb354",
        "value": "0x0",
        "data": "0x7d7a101d0000000000000000000000000000000000000000000000000000000000000060000000000000000000000000000000000000000000000000000000000000000100000000000000000000000000000000000000000000000000000000000000c0000000000000000000000000000000000000000000000000000000000000002a30783566626462323331353637386166656362333637663033326439336636343266363431383061613300000000000000000000000000000000000000000000000000000000000000000000000000000000000000000000000000000000000d48656c6c6f2c20576f726c642100000000000000000000000000000000000000",
        "nonce": "0x2",
        "accessList": []
      },
      "additionalContracts": [],
      "isFixedGasLimit": false
    }
  ],
  "receipts": [
    {
      "transactionHash": "0x02164644d6605e6b6b2a62e50d49e527a05f4d50866c40c494c86a79687e4e45",
      "transactionIndex": "0x0",
      "blockHash": "0x0aec5d3c314a903ae111e049f8408accc7c4dd87d2a969b0edf21834fe40f53e",
      "blockNumber": "0x3",
      "from": "0xf39Fd6e51aad88F6F4ce6aB8827279cffFb92266",
      "to": "0x5FbDB2315678afecb367f032d93F642f64180aa3",
      "cumulativeGasUsed": "0x81d5",
      "gasUsed": "0x81d5",
      "contractAddress": null,
      "logs": [
        {
          "address": "0x5FbDB2315678afecb367f032d93F642f64180aa3",
          "topics": [
            "0xe239c6cc960172ae2d18714ca9ffe583467df6bbe234d5efc5b346502e7d33a3",
            "0x000000000000000000000000f39fd6e51aad88f6f4ce6ab8827279cfffb92266"
          ],
          "data": "0x00000000000000000000000000000000000000000000000000000000000000200000000000000000000000000000000000000000000000000000000000000003000000000000000000000000000000000000000000000000000000000000000100000000000000000000000000000000000000000000000000000000000000c00000000000000000000000000000000000000000000000000000000000000001000000000000000000000000000000000000000000000000000000000000010000000000000000000000000000000000000000000000000000000000000001600000000000000000000000000000000000000000000000000000000000000020000000000000000000000000f39fd6e51aad88f6f4ce6ab8827279cfffb92266000000000000000000000000000000000000000000000000000000000000002a30783566626462323331353637386166656362333637663033326439336636343266363431383061613300000000000000000000000000000000000000000000000000000000000000000000000000000000000000000000000000000000000d48656c6c6f2c20576f726c642100000000000000000000000000000000000000",
          "blockHash": "0x0aec5d3c314a903ae111e049f8408accc7c4dd87d2a969b0edf21834fe40f53e",
          "blockNumber": "0x3",
          "transactionHash": "0x02164644d6605e6b6b2a62e50d49e527a05f4d50866c40c494c86a79687e4e45",
          "transactionIndex": "0x0",
          "logIndex": "0x0",
          "removed": false
        }
      ],
      "status": "0x1",
      "logsBloom": "0x00000000000000000000000000000000000000000000000000000000000000000000000000000000000000000000000000000000000000000000000000000000000000000000000000000000000000000000000000000000000000000000000000000040000000000000000100000000000000000000000000000000000000200000000000000000010000000000000000000000000000000000000200000000000000000000000000000000000000000000000000000000000000000000000000000040000000200000000000000000000000002000000000000000000000008000000000000000000000000000000000000000000000000000000000000000",
      "type": "0x2",
      "effectiveGasPrice": "0xe100d16a"
    }
  ],
  "libraries": [],
  "pending": [],
  "returns": {},
  "timestamp": 1713370940,
  "chain": 0,
  "multi": false,
  "commit": "d5ea9d2"
}